:100000006CD0DED085D288D09D3071F09F3731F032
:100010006DD270D0F8CF84D208810895FCDF003013
:1000200091F369D2D2D0EFCFF6DF003031F0E9D0D2
:1000300099D205D06DD2E2D0E6CFE0D0E4CF10E285
:100040000116B9F011E20116B1F012E20116A9F0A1
:1000500010E30116A1F010E70116A9F010EF011648
:1000600081F011EF011689F01EEF011609F012C0A0
:100070000895EBD00895B1D1089512D30895A8D171
:10008000089513D40895EFD0089596D40895F0E01C
:10009000E8EB0895FCDF9591903011F02BD0FBCF69
:1000A00002D036D2089539D23BD2003021F09D9152
:1000B00021D00A95FACF08954552524F523A204323
:1000C0006F6D6D616E64206E6F7420666F756E6407
:1000D0003A200000F1E0E0EB089508E10093C10050
:1000E00006E00093C20003E00093C40000E0009328
:1000F000C50008958091C00085FFFCCF7091C000BD
:1001000070647093C0009093C60001D008958091F0
:10011000C00086FFFCCF08958091C00087FFFCCF10
:100120009091C6000895112490E3E4DF98E7E2DFA0
:1001300061E007D0CFDF61E00DD0CCDF90E2DADF05
:100140000895652FC7DF62956F70E60FF11D9491DA
:10015000D1DF0895652FBEDF6F70E60FF11D94911A
:10016000C9DF089513D01DD090E2C4DF089554363E
:1001700098F063955456FBCF5A3070F063955A50FF
:10018000FBCF513048F063955150FBCF552309F018
:10019000EACF90E3AFDFE7CF605D962FABDF662756
:1001A00000C0543620F75A3038F7513050F70895D0
:1001B000303132333435363738394142434445469D
:1001C0002BD035D009D011D0089598E093DF90E27C
:1001D00091DF98E08FDF08959BE18CDF9BE58ADF5C
:1001E00092E388DF9AE486DF089591E683DF96E75D
:1001F00081DF92E77FDF9EE37DDF089502D0F5DFA8
:1002000008959AE077DF9DE075DF9BE173DF9BE562
:1002100071DF9BE46FDF08959BE16CDF9BE56ADF94
:1002200094E368DF94E366DF9DE664DF08959BE175
:1002300061DF9BE55FDF99E35DDF97E35BDF9DE6D1
:1002400059DF0895F2E0ECE70895FCDF95919030D6
:1002500021F09D3019F04EDFF9CF0895D2DFF6CFAF
:10026000F3E0ECE20895FCDF9591903021F09D30B1
:1002700019F040DFF9CF0895C4DFF6CF68656C70E0
:10028000202D20646973706C617920746869732013
:100290006C6973740D696E666F202D2064697370CC
:1002A0006C61792073797374656D20696E666F0D6A
:1002B00072656773202D20646973706C61792061A9
:1002C0006C6C2072656769737465722076616C75F9
:1002D00065730D636C656172202D20636C656172BE
:1002E00020646973706C61790D6563686F202D20DF
:1002F0007072696E7420617267756D656E740D73CE
:1003000072616D202D2072656164202F20777269E3
:10031000746520696E207372616D2874727920276C
:1003200068656C70207372616D2729007372616D4E
:1003300020777269746520307841414141203078DE
:1003400062620D57726974652076616C7565206212
:100350006228307830302D307846462920746F205E
:100360006164647265737320414141412830783083
:100370003030302D30783746462920696E20737230
:10038000616D0D7372616D2072656164203078411A
:100390004141410D446973706C6179207468652036
:1003A00076616C7565206F66206164647265737335
:1003B000204141414128307830303030202D2030EC
:1003C00078303746462920696E207372616D0000CF
:1003D00003DF0895F3E0E0EF0895FCDF959190309E
:1003E00021F09D3019F086DEF9CF08950ADFF6CFAF
:1003F0002020202020205F092020202020202020D5
:100400005F5F5F5F5F5F5F2E094350553A20415445
:100410006D656761333238700D20202020202F4019
:100420002E202020202020202F40404040404040CF
:10043000402E095352414D3A20324B620D2020206C
:10044000202F405E402E20202020202F402F606053
:100450006060606040402E09464C4153483A20336A
:10046000324B620D2020202F402F5F60402E202035
:10047000202F404040404040404040402F094545EB
:1004800050524F4D3A20314B620D20202F404040BA
:10049000404040402E202F404040402E6060606031
:1004A0006060094156523A20313030250D202F40EE
:1004B0002F6060606060404056402F604040404088
:1004C0002E090956455253494F4E3A20312E302EAF
:1004D00030760D2F402F2020202020206040402FFC
:1004E0002020202060404040402E000007D00132F4
:1004F000E9F09D93089507D01197089511D00881D0
:100500000395088308950CD008810A9508830895FF
:1005100004D006D000E008830895B1E0A0E008957B
:10052000D1E0C0E20895F5E0E0E40895F1DFFBDFFB
:1005300068DE9591992311F0DDDDFBCF5FDE089534
:100540004552524F523A204F564552464C4F572033
:10055000333220636861726163746572206C696D07
:10056000697421007AD0043009F42CC0053009F4F4
:100570001FC0093009F416C000C040EF59D005E093
:100580003AD0313009F434C05FD00CE034D031308F
:1005900009F03EC012E0ADD1303009F429C04DEF72
:1005A000042E089540E74AD025D0313009F130C0FB
:1005B00040E33BD01FD03130D9F03AD01BD031309E
:1005C00099F026C040E228D015D0313089F027D0EC
:1005D00011D0313069F026D00DD0313049F02BD018
:1005E00009D0313009F014C04EEF042E6AD10895BD
:1005F000042E089532D091DF1D912591121729F410
:100600000A950023C9F731E0089530E04395089535
:1006100084DF1FEF012E0895F6E0E0E60895F6E08E
:10062000EDE60895F6E0E1E70895F6E0E5E70895E0
:10063000F6E0EAE70895F6E0EFE70895F6E0E4E68D
:100640000895F6E0EFE80895F6E0E3E80895F6E0AF
:10065000ECE90895F6E0EFE9089562DF0881089576
:1006600068656C7068656C70207372616D696E6628
:100670006F72656773636C6561726563686F20652F
:1006800063686F7372616D20726561642030787386
:1006900072616D207772697465203078203078003F
:1006A000002781D0EF01FE019591EF01992331F0F0
:1006B0009D3029F09A3029F01DDDF5CF0895A1DD98
:1006C000F2CFEF0103D0E00FF11D0994F3E0E9E66A
:1006D000089523C024C025C026C027C028C029C033
:1006E0002AC02BC02CC02DC02EC02FC030C031C09E
:1006F00032C033C034C035C036C037C038C038C04F
:1007000039C03AC03BC03CC03DC03EC03FC040C005
:1007100041C042C008DD0395C6CF502DFBCF512DFF
:10072000F9CF522DF7CF532DF5CF542DF3CF552DB3
:10073000F1CF562DEFCF572DEDCF582DEBCF592DB3
:10074000E9CF5A2DE7CF5B2DE5CF5C2DE3CF5D2DB3
:10075000E1CF5E2DDFCF5F2DDDCF502FDBCF512FCF
:10076000D9CF522FD7CF532FD5CF542FD3CFD2CFCE
:10077000562FD0CF572FCECF582FCCCF592FCACFEF
:100780005A2FC8CF5B2FC6CF5C2FC4CF5D2FC2CFEF
:100790005E2FC0CF5F2FBECF50915E00C4DC509162
:1007A0005D00C1DC8BCFF7E0ECEA089572303A309F
:1007B000780A2072313A30780A2072323A30780A58
:1007C0002072333A30780A2072343A30780A207234
:1007D000353A30780A0D72363A30780A2072373A54
:1007E00030780A2072383A30780A2072393A3078F4
:1007F0000A207231303A30780A207231313A30783A
:100800000A0D7231323A30780A207231333A307838
:100810000A207231343A30780A207231353A307811
:100820000A207231363A30780A207231373A3078FD
:100830000A0D7231383A30780A207231393A3078FC
:100840000A207232303A30780A207232313A3078E7
:100850000A207232323A30780A207232333A3078D3
:100860000A0D7232343A30780A207232353A3078D2
:100870000A207232363A30780A207232373A3078AB
:100880000A207232383A30780A207232393A307897
:100890000A0D7233303A30780A207233313A3078A8
:1008A0000A2053503A30780A00003ADE088135DEDB
:1008B00015960550002321F09D911CDC0A95FACF76
:1008C000089506D09591903011F014DCFBCF089577
:1008D000F8E0E6ED08954552524F523A204E6F200F
:1008E000617267756D656E742070726F766964658C
:1008F00064003327CC27DD27EE27FF27123009F0CD
:1009000027C02D9131D0313001F1C22F43D042D0D8
:1009100041D02D9129D03130C1F0E22F44D043D0C5
:10092000CE0FDF1F2D9120D0313079F0EE27FF2739
:10093000E22F39D0CE0FDF1F2D9116D0313029F0A4
:10094000C20FD11DD2E1C4E308952DEF022E089508
:100950002D910AD03130C9F318D0222E2D9104D018
:10096000313099F3220E0895203318F4213420F405
:100970000AC02A3320F0FACF273418F004C02053DD
:1009800008952753089531E00895220F220F220F72
:10099000220F0895CC0FDD1FCC0FDD1FCC0FDD1F04
:1009A000CC0FDD1F0895EE0FFF1FEE0FFF1FEE0FA0
:1009B000FF1FEE0FFF1F089508D095919A3011F098
:1009C00099DBFBCF9881AFDB0895F9E0E0ED089566
:1009D00056616C7565206F6620616464726573731F
:0609E0003A2030780A0005
:00000001FF
