:1000000071D0DBD082D28DD09D3071F09F3731F02E
:100010006AD275D0F8CF81D208810895FCDF003014
:1000200091F366D2CFD0EFCFF6DF003031F0E6D0DB
:1000300097D205D06AD2DFD0E6CFDDD0E4CF10E290
:100040000116D1F011E20116C9F012E20116C1F059
:1000500010E30116B9F010E70116C1F010EF011618
:1000600099F010E80116A1F010EC011699F01EEFBE
:10007000011609F014C00895E5D00895ABD1089594
:1000800026D30895A2D1089527D40895E9D00895DC
:10009000BBD40895A6D40895F0E0E2EC0895FCDF07
:1000A0009591903011F02BD0FBCF02D02ED2089535
:1000B00031D2B1DF003021F09D9121D00A95FACFE5
:1000C00008954552524F523A20436F6D6D616E64F0
:1000D000206E6F7420666F756E643A200000F1E048
:1000E000EAEA089508E10093C10006E00093C20027
:1000F00003E00093C40000E00093C50008958091E0
:10010000C00085FFFCCF7091C00070647093C00088
:100110009093C60001D008958091C00086FFFCCF67
:1001200008958091C00087FFFCCF9091C60008958C
:10013000112404D0D4DF0BD0D2DF0895652FCFDF98
:1001400062956F70E60FF11D9491D9DF0895652FC8
:10015000C6DF6F70E60FF11D9491D1DF089513D0C3
:100160001DD090E2CCDF0895543698F06395545634
:10017000FBCF5A3070F063955A50FBCF513048F0A6
:1001800063955150FBCF552309F0EACF90E3B7DFD9
:10019000E7CF605D962FB3DF662700C0543620F7A7
:1001A0005A3038F7513050F7089530313233343502
:1001B000363738394142434445462BD035D009D0F3
:1001C00011D0089598E09BDF90E299DF98E097DFE7
:1001D00008959BE194DF9BE592DF92E390DF9AE440
:1001E0008EDF089591E68BDF96E789DF92E787DF60
:1001F0009EE385DF089502D0F5DF08959AE07FDF62
:100200009DE07DDF9BE17BDF9BE579DF9BE477DF92
:1002100008959BE174DF9BE572DF94E370DF94E364
:100220006EDF9DE66CDF08959BE169DF9BE567DF8C
:1002300099E365DF97E363DF9DE661DF0895F2E010
:10024000E6E70895FCDF9591903021F09D3019F09C
:1002500056DFF9CF0895D2DFF6CFF3E0E6E2089556
:10026000FCDF9591903021F09D3019F048DFF9CFF7
:100270000895C4DFF6CF68656C70202D2064697323
:10028000706C61792074686973206C6973740D698E
:100290006E666F202D20646973706C6179207379AC
:1002A0007374656D20696E666F0D72656773202DBE
:1002B00020646973706C617920616C6C2072656771
:1002C00069737465722076616C7565730D636C6516
:1002D0006172202D20636C65617220646973706C9B
:1002E00061790D6563686F202D207072696E7420CE
:1002F000617267756D656E740D7372616D202D206E
:1003000072656164202F20777269746520696E20A0
:100310007372616D28747279202768656C70207320
:1003200072616D2729007372616D2077726974653F
:100330002030784141414120307862620D57726926
:1003400074652076616C7565206262283078303083
:100350002D307846462920746F206164647265737D
:10036000732041414141283078303030302D307891
:100370003746462920696E207372616D0D73726174
:100380006D2072656164203078414141410D4469BE
:1003900073706C6179207468652076616C75652076
:1003A0006F66206164647265737320414141412826
:1003B000307830303030202D2030783037464629A4
:1003C00020696E207372616D000003DF0895F3E011
:1003D000EAEE0895FCDF9591903021F09D3019F000
:1003E0008EDEF9CF08950ADFF6CF202020202020CE
:1003F0005F0920202020202020205F5F5F5F5F5F5B
:100400005F2E094350553A2041546D656761333280
:1004100038700D20202020202F402E20202020204A
:1004200020202F40404040404040402E0953524140
:100430004D3A20324B620D202020202F405E402E6E
:1004400020202020202F402F6060606060604040AE
:100450002E09464C4153483A2033324B620D20203E
:10046000202F402F5F60402E2020202F4040404012
:100470004040404040402F09454550524F4D3A20A2
:10048000314B620D20202F404040404040402E2004
:100490002F404040402E60606060606009415652CD
:1004A0003A20313030250D202F402F606060606091
:1004B000404056402F60404040402E09095645526A
:1004C00053494F4E3A20312E302E30760D2F402F8B
:1004D0002020202020206040402F2020202060402D
:1004E0004040402E000007D00132E9F09D9308956E
:1004F00007D01197089511D00881039508830895B6
:100500000CD008810A950883089504D006D000E035
:1005100008830895B1E0A0E00895D1E0C0E2089515
:10052000F5E0ECE30895F1DFFBDF68DE95919923B8
:1005300011F0E5DDFBCF5FDE992708954552524F5C
:10054000523A204F564552464C4F57203332206383
:100550006861726163746572206C696D69742100F1
:100560009AD0043009F44FC0053009F442C0093074
:1005700009F439C00A3009F42FC00E3009F425C03F
:1005800000C040EF76D005E057D0313009F451C0BB
:1005900060C012E0C5D13030A9F44BC012E0C0D128
:1005A000303081F400C074D001E047D0313051F4D4
:1005B00000C0CD2EDC2E11E0B3D1303019F4DC2D8B
:1005C000CD2D37C04DEF042E089540EC5BD007E0F1
:1005D00033D0313019F33DC040E857D006E02CD07D
:1005E0003130B9F236C040E74AD025D0313009F178
:1005F00030C040E33BD01FD03130D9F03AD01BD0CF
:10060000313099F026C040E228D015D0313089F041
:1006100027D011D0313069F026D00DD0313049F0DB
:100620002BD009D0313009F014C04EEF042E60D128
:100630000895042E08952FD06DDF1D912591121776
:1006400029F40A950023C9F731E0089530E0439575
:10065000089560DF1FEF012E0895F6E0ECE908959C
:10066000F6E0E9EA0895F6E0EDEA0895F6E0E1EB58
:100670000895F6E0E6EB0895F6E0EBEB0895F6E07A
:10068000E0EA0895F6E0E5EC0895F6E0EFEB089572
:10069000F6E0ECEC089541DF0881089568656C7020
:1006A00068656C70207372616D696E666F726567E4
:1006B00073636C6561726563686F206563686F6DF5
:1006C00072656164206D777269746520200000276F
:1006D00081D0EF01FE019591EF01992331F09D301A
:1006E00029F09A3029F00BDDF5CF089587DDF2CFA0
:1006F000EF0103D0E00FF11D0994F3E0E0E8089565
:1007000023C024C025C026C027C028C029C02AC0B5
:100710002BC02CC02DC02EC02FC030C031C032C065
:1007200033C034C035C036C037C038C038C039C017
:100730003AC03BC03CC03DC03EC03FC040C041C0CD
:1007400042C0F6DC0395C6CF502DFBCF512DF9CF1B
:10075000522DF7CF532DF5CF542DF3CF552DF1CF8B
:10076000562DEFCF572DEDCF582DEBCF592DE9CF8B
:100770005A2DE7CF5B2DE5CF5C2DE3CF5D2DE1CF8B
:100780005E2DDFCF5F2DDDCF502FDBCF512FD9CFA7
:10079000522FD7CF532FD5CF542FD3CFD2CF562FC1
:1007A000D0CF572FCECF582FCCCF592FCACF5A2FBB
:1007B000C8CF5B2FC6CF5C2FC4CF5D2FC2CF5E2FBB
:1007C000C0CF5F2FBECF50915E00B2DC50915D0074
:1007D000AFDC8BCFF7E0EAED089572303A30780A5B
:1007E0002072313A30780A2072323A30780A207218
:1007F000333A30780A2072343A30780A2072353A27
:1008000030780A0D72363A30780A2072373A3078EA
:100810000A2072383A30780A2072393A30780A2041
:100820007231303A30780A207231313A30780A0D1C
:100830007231323A30780A207231333A30780A20F5
:100840007231343A30780A207231353A30780A20E1
:100850007231363A30780A207231373A30780A0DE0
:100860007231383A30780A207231393A30780A20B9
:100870007232303A30780A207232313A30780A20B7
:100880007232323A30780A207232333A30780A0DB6
:100890007232343A30780A207232353A30780A208F
:1008A0007232363A30780A207232373A30780A207B
:1008B0007232383A30780A207232393A30780A0D7A
:1008C0007233303A30780A207233313A30780A2065
:1008D00053503A30780A000020DE08811BDE15965E
:1008E0000550002321F09D910ADC0A95FACF089566
:1008F00006D09591903011F002DCFBCF0895F9E01D
:10090000E4E008954552524F523A204E6F206172F2
:1009100067756D656E742070726F766964656400CA
:100920003327CC27DD27EE27FF27123009F025C01B
:100930002D912FD03130F1F0C22F41D040D03FD097
:100940002D9127D03130B1F0E22F42D041D0CE0FDF
:10095000DF1F2D911ED0313069F0EE27FF27E22FE7
:1009600037D0CE0FDF1F2D9114D0313019F0C20FC8
:10097000D11D08952DEF022E08952D910AD031300A
:10098000C9F318D0222E2D9104D0313099F3220EC4
:100990000895203318F4213420F40AC02A3320F0BB
:1009A000FACF273418F004C0205308952753089530
:1009B00031E00895220F220F220F220F0895CC0F4D
:1009C000DD1FCC0FDD1FCC0FDD1FCC0FDD1F089509
:1009D000EE0FFF1FEE0FFF1FEE0FFF1FEE0FFF1FAB
:1009E000089528821DD095919A3021F09D3039F0DC
:1009F00086DBF9CF522D9CDB13D07296F4CF5D2F9E
:100A000097DB5C2F95DB089508D095919A3011F013
:100A100076DBFBCF58818CDB0895FAE0E6E208959F
:100A2000FAE0EBE3089556616C7565206F6620610E
:100A30006464726573733A2030780A57726974740B
:100A4000656E2076616C75652030780A20746F20A1
:0C0A5000616464726573732030780D00DF
:00000001FF
