:1000000070D0DAD05BD28CD09D3071F09F3731F058
:1000100043D274D0F8CF5AD208810895FCDF003063
:1000200091F33FD2CED0EFCFF6DF003031F0E5D004
:1000300070D205D043D2DED0E6CFDCD0E4CF10E2E0
:100040000116D1F011E20116C9F012E20116C1F059
:1000500010E30116B9F010E70116E1F010E80116FF
:10006000A9F010EC0116A1F010EF011669F01EEFD7
:10007000011609F013C00895E4D0089582D10895BF
:1000800006D3089579D1089507D40895A4D4089586
:100090008FD408950994F0E0E0EC0895FCDF959189
:1000A000903011F02BD0FBCF02D008D208950BD2A4
:1000B000B2DF003021F09D9121D00A95FACF08954A
:1000C0004552524F523A20436F6D6D616E64206EFF
:1000D0006F7420666F756E643A200000F1E0E8EA04
:1000E000089508E10093C10006E00093C20003E018
:1000F0000093C40000E00093C50008958091C00003
:1001000085FFFCCF7091C00070647093C000909325
:10011000C60001D008958091C00086FFFCCF0895ED
:100120008091C00087FFFCCF9091C60008951124F4
:1001300004D0D4DF0BD0D2DF0895652FCFDF6295D6
:100140006F70E60FF11D9491D9DF0895652FC6DF1A
:100150006F70E60FF11D9491D1DF089513D01DD07B
:1001600090E2CCDF0895543698F063955456FBCF57
:100170005A3070F063955A50FBCF513048F0639578
:100180005150FBCF552309F0EACF90E3B7DFE7CF1B
:10019000605D962FB3DF662700C0543620F75A30D3
:1001A00038F7513050F7089530313233343536371F
:1001B00038394142434445462BD035D009D011D07F
:1001C000089598E09BDF90E299DF98E097DF08952B
:1001D0009BE194DF9BE592DF92E390DF9AE48EDF70
:1001E000089591E68BDF96E789DF92E787DF9EE34C
:1001F00085DF089502D0F5DF08959AE07FDF9DE066
:100200007DDF9BE17BDF9BE579DF9BE477DF089572
:100210009BE174DF9BE572DF94E370DF94E36EDFB4
:100220009DE66CDF08959BE169DF9BE567DF99E35D
:1002300065DF97E363DF9DE661DF0895F2E0E8E5BF
:100240000895FCDF9591903021F09D3019F056DF34
:10025000F9CF0895D2DFF6CF68656C70202D206449
:100260006973706C61792074686973206C69737448
:100270000D696E666F202D20646973706C61792042
:1002800073797374656D20696E666F0D726567733F
:10029000202D20646973706C617920616C6C207210
:1002A000656769737465722076616C7565730D633B
:1002B0006C656172202D20636C65617220646973C6
:1002C000706C61790D6563686F202D207072696EA6
:1002D0007420617267756D656E740D6D7265616411
:1002E000202D20726561642064617461206D656DEC
:1002F0006F727928636865636B20494E5354525579
:100300004354494F4E532E6D64290D6D77726974B5
:1003100065202D20777269746520746F2064617484
:1003200061206D656D6F727928636865636B204924
:100330004E535452554354494F4E532E6D64290D1C
:10034000696A6D70202D20696E646972656374201E
:100350006A756D7020746F206164647265737320B8
:1003600028636865636B20494E5354525543544982
:100370004F4E532E6D6429002BDF0895F3E0E8E91A
:100380000895FCDF9591903021F09D3019F0B6DE94
:10039000F9CF089532DFF6CF2020202020205F09FA
:1003A00020202020202020205F5F5F5F5F5F5F2E86
:1003B000094350553A2041546D65676133323870B6
:1003C0000D20202020202F402E2020202020202003
:1003D0002F40404040404040402E095352414D3A4A
:1003E00020324B420D202020202F405E402E202026
:1003F0002020202F402F60606060606040402E0908
:10040000464C4153483A2033324B420D2020202F96
:10041000402F5F60402E2020202F40404040404031
:10042000404040402F09454550524F4D3A20314BF6
:10043000420D20202F404040404040402E202F4081
:100440004040402E606060606060094156523A2032
:10045000313030250D202F402F60606060604040BB
:1004600056402F60404040402E090956455253499E
:100470004F4E3A20302E312E302D616C7068610D58
:100480002F402F2020202020206040402F2020209F
:100490002060404040402E0007D00132E9F09D939B
:1004A000089507D01197089511D008810395088306
:1004B00008950CD008810A950883089504D006D0C9
:1004C00000E008830895B1E0A0E00895D1E0C0E223
:1004D0000895F4E0EEEE0895F1DFFBDF8EDE9591F6
:1004E000992311F00BDEFBCF85DE99270895455245
:1004F000524F523A204F564552464C4F57203332B6
:1005000020636861726163746572206C696D6974DF
:100510002100A3D0043009F458C0053009F44BC0C1
:10052000093009F441C00A3009F437C00E3009F42B
:100530002DC000C040EF7FD005E060D0313009F41D
:100540005AC069C012E0CCD13030E9F454C012E096
:10055000C7D13030C1F400C07DD001E050D031307F
:1005600091F400C0CD2EDC2E11E0BAD1303059F418
:10057000DC2DCD2D40C012E0B3D1303021F4FE018E
:10058000F695E79538C04DEF042E089540EC5CD009
:1005900007E034D03130D9F23EC040E858D006E010
:1005A0002DD0313079F237C040E74BD005E026D06E
:1005B000313009F330C040E33BD01FD03130D9F0A7
:1005C0003AD01BD0313099F026C040E228D015D067
:1005D000313089F027D011D0313069F026D00DD0DC
:1005E000313049F02BD009D0313009F014C04EEF32
:1005F000042E5ED10895042E08952FD064DF1D913E
:100600002591121729F40A950023C9F731E00895BE
:1006100030E04395089557DF1FEF012E0895F6E06F
:10062000E0E60895F6E0E4E60895F6E0E8E60895E9
:10063000F6E0ECE60895F6E0E1E70895F6E0E6E797
:100640000895F6E0E8E80895F6E0E0E80895F6E0B9
:10065000EAE70895F6E0E7E8089538DF08810895AD
:1006600068656C70696E666F72656773636C6561EF
:10067000726563686F206563686F6D726561642081
:100680006D77726974652020696A6D70200000279B
:1006900081D0EF01FE019591EF01992331F09D305A
:1006A00029F09A3029F02ADDF5CF0895A6DDF2CFA2
:1006B000EF0103D0E00FF11D0994F3E0E0E60895A7
:1006C00023C024C025C026C027C028C029C02AC0F6
:1006D0002BC02CC02DC02EC02FC030C031C032C0A6
:1006E00033C034C035C036C037C038C038C039C058
:1006F0003AC03BC03CC03DC03EC03FC040C041C00E
:1007000042C015DD0395C6CF502DFBCF512DF9CF3B
:10071000522DF7CF532DF5CF542DF3CF552DF1CFCB
:10072000562DEFCF572DEDCF582DEBCF592DE9CFCB
:100730005A2DE7CF5B2DE5CF5C2DE3CF5D2DE1CFCB
:100740005E2DDFCF5F2DDDCF502FDBCF512FD9CFE7
:10075000522FD7CF532FD5CF542FD3CFD2CF562F01
:10076000D0CF572FCECF582FCCCF592FCACF5A2FFB
:10077000C8CF5B2FC6CF5C2FC4CF5D2FC2CF5E2FFB
:10078000C0CF5F2FBECF50915E00D1DC50915D0095
:10079000CEDC8BCFF7E0EAE9089572303A30780A80
:1007A0002072313A30780A2072323A30780A207258
:1007B000333A30780A2072343A30780A2072353A67
:1007C00030780A0D72363A30780A2072373A30782B
:1007D0000A2072383A30780A2072393A30780A2082
:1007E0007231303A30780A207231313A30780A0D5D
:1007F0007231323A30780A207231333A30780A2036
:100800007231343A30780A207231353A30780A2021
:100810007231363A30780A207231373A30780A0D20
:100820007231383A30780A207231393A30780A20F9
:100830007232303A30780A207232313A30780A20F7
:100840007232323A30780A207232333A30780A0DF6
:100850007232343A30780A207232353A30780A20CF
:100860007232363A30780A207232373A30780A20BB
:100870007232383A30780A207232393A30780A0DBA
:100880007233303A30780A207233313A30780A20A5
:1008900053503A30780A000019DE088114DE1596AC
:1008A0000550002321F09D9129DC0A95FACF089587
:1008B00006D09591903011F021DCFBCF0895F8E03F
:1008C000E4EC08954552524F523A204E6F20617227
:1008D00067756D656E742070726F7669646564000B
:1008E0003327CC27DD27EE27FF27123009F025C05C
:1008F0002D912FD03130F1F0C22F48D047D046D0C3
:100900002D9127D03130B1F0E22F49D048D0CE0F11
:10091000DF1F2D911ED0313069F0EE27FF27E22F27
:100920003ED0CE0FDF1F2D9114D0313019F0C20F01
:10093000D11D08952DEF022E08952D910AD031304A
:10094000C9F31FD0222E2D9104D0313099F3220EFD
:100950000895213640F4203318F4213438F40FC0C0
:100960002A3338F00CC0273640F009C0273418F07D
:1009700006C020530895275308952755089531E060
:100980000895220F220F220F220F0895CC0FDD1F92
:10099000CC0FDD1FCC0FDD1FCC0FDD1F0895EE0F38
:1009A000FF1FEE0FFF1FEE0FFF1FEE0FFF1F08953B
:1009B00028821DD095919A3021F09D3039F09EDB30
:1009C000F9CF522DB4DB13D07196F4CF5D2FAFDB8E
:1009D0005C2FADDB089508D095919A3011F08EDB35
:1009E000FBCF5881A4DB0895F9E0E4EF0895FAE025
:1009F000E9E0089556616C7565206F662061646456
:100A0000726573733A2030780A5772697474656E30
:100A10002076616C75652030780A20746F206164DF
:0A0A200064726573732030780D00D6
:00000001FF
