:100000006CD0D8D07FD288D09D3071F09F3731F03E
:1000100067D270D0F8CF7ED208810895FCDF00301F
:1000200091F363D2CCD0EFCFF6DF003031F0E3D0E4
:1000300094D205D067D2DCD0E6CFDAD0E4CF10E29C
:100040000116B9F011E20116B1F012E20116A9F0A1
:1000500010E30116A1F010E70116A9F010EF011648
:1000600081F010E8011689F01EEF011609F012C0A8
:100070000895E5D00895ABD1089507D30895A2D18E
:10008000089508D40895E9D008958BD40895F0E038
:10009000E8EB0895FCDF9591903011F02BD0FBCF69
:1000A00002D030D2089533D2B6DF003021F09D91D6
:1000B00021D00A95FACF08954552524F523A204323
:1000C0006F6D6D616E64206E6F7420666F756E6407
:1000D0003A200000F1E0E4EA089508E10093C1004D
:1000E00006E00093C20003E00093C40000E0009328
:1000F000C50008958091C00085FFFCCF7091C000BD
:1001000070647093C0009093C60001D008958091F0
:10011000C00086FFFCCF08958091C00087FFFCCF10
:100120009091C6000895112406D0D4DF0DD0D2DFFF
:1001300090E2E0DF0895652FCDDF62956F70E60FE6
:10014000F11D9491D7DF0895652FC4DF6F70E60F1E
:10015000F11D9491CFDF089513D01DD090E2CADF36
:100160000895543698F063955456FBCF5A3070F08A
:1001700063955A50FBCF513048F063955150FBCFF7
:10018000552309F0EACF90E3B5DFE7CF605D962F06
:10019000B1DF662700C0543620F75A3038F75130A7
:1001A00050F70895303132333435363738394142DB
:1001B000434445462BD035D009D011D0089598E05E
:1001C00099DF90E297DF98E095DF08959BE192DF59
:1001D0009BE590DF92E38EDF9AE48CDF089591E651
:1001E00089DF96E787DF92E785DF9EE383DF089567
:1001F00002D0F5DF08959AE07DDF9DE07BDF9BE193
:1002000079DF9BE577DF9BE475DF08959BE172DF83
:100210009BE570DF94E36EDF94E36CDF9DE66ADFBD
:1002200008959BE167DF9BE565DF99E363DF97E373
:1002300061DF9DE65FDF0895F2E0E0E70895FCDF0F
:100240009591903021F09D3019F054DFF9CF089549
:10025000D2DFF6CFF3E0E0E20895FCDF9591903035
:1002600021F09D3019F046DFF9CF0895C4DFF6CFB5
:1002700068656C70202D20646973706C61792074DE
:10028000686973206C6973740D696E666F202D2028
:10029000646973706C61792073797374656D20691A
:1002A0006E666F0D72656773202D20646973706CC4
:1002B000617920616C6C2072656769737465722066
:1002C00076616C7565730D636C656172202D2063BA
:1002D0006C65617220646973706C61790D65636827
:1002E0006F202D207072696E7420617267756D6564
:1002F0006E740D7372616D202D2072656164202F04
:1003000020777269746520696E207372616D28743C
:100310007279202768656C70207372616D272900DF
:100320007372616D20777269746520307841414144
:100330004120307862620D57726974652076616C75
:10034000756520626228307830302D307846462935
:1003500020746F2061646472657373204141414170
:10036000283078303030302D3078374646292069B3
:100370006E207372616D0D7372616D2072656164C0
:10038000203078414141410D446973706C6179209E
:100390007468652076616C7565206F6620616464A1
:1003A00072657373204141414128307830303030DC
:1003B000202D203078303746462920696E20737210
:1003C000616D000003DF0895F3E0E4EE0895FCDFC3
:1003D0009591903021F09D3019F08CDEF9CF089581
:1003E0000ADFF6CF2020202020205F0920202020B7
:1003F000202020205F5F5F5F5F5F5F2E09435055C5
:100400003A2041546D656761333238700D202020E9
:1004100020202F402E202020202020202F40404030
:1004200040404040402E095352414D3A20324B62E9
:100430000D202020202F405E402E20202020202F25
:10044000402F60606060606040402E09464C415320
:10045000483A2033324B620D2020202F402F5F601E
:10046000402E2020202F404040404040404040400F
:100470002F09454550524F4D3A20314B620D2020F7
:100480002F404040404040402E202F404040402ED2
:10049000606060606060094156523A20313030251A
:1004A0000D202F402F6060606060404056402F60FC
:1004B000404040402E090956455253494F4E3A207C
:1004C000312E302E30760D2F402F2020202020205E
:1004D0006040402F2020202060404040402E0000FF
:1004E00007D00132E9F09D93089507D01197089540
:1004F00011D008810395088308950CD008810A95CE
:100500000883089504D006D000E008830895B1E080
:10051000A0E00895D1E0C0E20895F5E0E6E3089593
:10052000F1DFFBDF68DE9591992311F0E3DDFBCF6E
:100530005FDE992708954552524F523A204F564553
:1005400052464C4F572033322063686172616374A6
:100550006572206C696D697421007CD0043009F4E7
:1005600031C0053009F424C0093009F41BC00A3039
:1005700009F411C000C040EF5BD005E03CD0313041
:1005800009F436C045C012E0A9D1303009F430C0BA
:100590004DEF042E089540E857D006E02CD03130BE
:1005A00091F336C040E74AD025D0313009F130C050
:1005B00040E33BD01FD03130D9F03AD01BD031309E
:1005C00099F026C040E228D015D0313089F027D0EC
:1005D00011D0313069F026D00DD0313049F02BD018
:1005E00009D0313009F014C04EEF042E5FD10895C8
:1005F000042E08952FD08BDF1D912591121729F419
:100600000A950023C9F731E0089530E04395089535
:100610007EDF1FEF012E0895F6E0EAE50895F6E08B
:10062000E7E60895F6E0EBE60895F6E0EFE60895D4
:10063000F6E0E4E70895F6E0E9E70895F6E0EEE590
:100640000895F6E0E3E80895F6E0EDE70895F6E0B2
:10065000E9E808955FDF0881089568656C70686552
:100660006C70207372616D696E666F72656773631B
:100670006C6561726563686F206563686F6D726534
:100680006164206D777269746500002781D0EF0185
:10069000FE019591EF01992331F09D3029F09A30B8
:1006A00029F028DDF5CF0895A6DDF2CFEF0103D0C4
:1006B000E00FF11D0994F3E0EEE5089523C024C096
:1006C00025C026C027C028C029C02AC02BC02CC0E6
:1006D0002DC02EC02FC030C031C032C033C034C096
:1006E00035C036C037C038C038C039C03AC03BC04A
:1006F0003CC03DC03EC03FC040C041C042C013DD11
:100700000395C6CF502DFBCF512DF9CF522DF7CFEA
:10071000532DF5CF542DF3CF552DF1CF562DEFCFCF
:10072000572DEDCF582DEBCF592DE9CF5A2DE7CFCF
:100730005B2DE5CF5C2DE3CF5D2DE1CF5E2DDFCFCF
:100740005F2DDDCF502FDBCF512FD9CF522FD7CFF9
:10075000532FD5CF542FD3CFD2CF562FD0CF572F03
:10076000CECF582FCCCF592FCACF5A2FC8CF5B2FFF
:10077000C6CF5C2FC4CF5D2FC2CF5E2FC0CF5F2FFF
:10078000BECF50915E00CFDC50915D00CCDC8BCFB2
:10079000F7E0E6E9089572303A30780A2072313A8B
:1007A00030780A2072323A30780A2072333A307840
:1007B0000A2072343A30780A2072353A30780A0DBD
:1007C00072363A30780A2072373A30780A20723816
:1007D0003A30780A2072393A30780A207231303A49
:1007E00030780A207231313A30780A0D7231323A5B
:1007F00030780A207231333A30780A207231343A34
:1008000030780A207231353A30780A207231363A1F
:1008100030780A207231373A30780A0D7231383A1E
:1008200030780A207231393A30780A207232303A00
:1008300030780A207232313A30780A207232323AF5
:1008400030780A207232333A30780A0D7232343AF4
:1008500030780A207232353A30780A207232363ACD
:1008600030780A207232373A30780A207232383AB9
:1008700030780A207232393A30780A0D7233303AC1
:1008800030780A207233313A30780A2053503A30A7
:10089000780A00003FDE08813ADE159605500023F5
:1008A00021F09D9127DC0A95FACF089506D0959105
:1008B000903011F01FDCFBCF0895F8E0E0EC0895D4
:1008C0004552524F523A204E6F20617267756D65E6
:1008D0006E742070726F7669646564003327CC276C
:1008E000DD27EE27FF27123009F027C02D9131D0E8
:1008F000313001F1C22F43D042D041D02D9129D0C7
:100900003130C1F0E22F44D043D0CE0FDF1F2D9104
:1009100020D0313079F0EE27FF27E22F39D0CE0FEB
:10092000DF1F2D9116D0313029F0C20FD11DD2E139
:10093000C4E308952DEF022E08952D910AD0313091
:10094000C9F318D0222E2D9104D0313099F3220E04
:100950000895203318F4213420F40AC02A3320F0FB
:10096000FACF273418F004C0205308952753089570
:1009700031E00895220F220F220F220F0895CC0F8D
:10098000DD1FCC0FDD1FCC0FDD1FCC0FDD1F089549
:10099000EE0FFF1FEE0FFF1FEE0FFF1FEE0FFF1FEB
:1009A000089508D095919A3011F0A4DBFBCF98817F
:1009B000BADB0895F9E0EAEB089556616C7565209D
:1009C0006F6620616464726573733A2030780A0040
:00000001FF
