:100000008CD0F6D070D2A8D09D3071F09F3731F0EF
:1000100058D290D0F8CF6FD208810895FCDF00301D
:1000200091F354D2EAD0EFCFF6DF003031F001D1B6
:1000300085D205D058D2FAD0E6CFF8D0E4CF10E27E
:100040000116C9F011E20116C1F012E20116B9F071
:1000500010E30116B1F011EF0116D9F012EF0116FD
:10006000A1F013EF011699F010EF011661F01DEFEA
:10007000011681F014C001D1089596D108956ED370
:1000800008958DD1089568D40895F1D40895DCD4ED
:100090000895099416D00895F0E0E6ED0895FCDF88
:1000A0009591903011F046D0FBCF02D01CD208952C
:1000B0001FD2B1DF003021F09D913CD00A95FACFDC
:1000C000089506D09591903011F034D0FBCF08956B
:1000D000F0E0E1EF08954552524F523A20436F6DE0
:1000E0006D616E64206E6F7420666F756E643A2069
:1000F000004552524F523A20496E76616C69642035
:10010000617267756D656E742F732070726F76699A
:1001100064656400F1E0E0EE089508E10093C10039
:1001200006E00093C20003E00093C40000E00093E7
:10013000C50008958091C00085FFFCCF7091C0007C
:1001400070647093C0009093C60001D008958091B0
:10015000C00086FFFCCF08958091C00087FFFCCFD0
:100160009091C6000895112404D0D4DF0BD0D2DFC3
:100170000895652FCFDF62956F70E60FF11D9491A2
:10018000D9DF0895652FC6DF6F70E60FF11D9491DA
:10019000D1DF089513D01DD090E2CCDF08955436FE
:1001A00098F063955456FBCF5A3070F063955A50CF
:1001B000FBCF513048F063955150FBCF552309F0E8
:1001C000EACF90E3B7DFE7CF605D962FB3DF662716
:1001D00000C0543620F75A3038F7513050F70895A0
:1001E000303132333435363738394142434445466D
:1001F0002BD035D009D011D0089598E09BDF90E244
:1002000099DF98E097DF08959BE194DF9BE592DF0B
:1002100092E390DF9AE48EDF089591E68BDF96E714
:1002200089DF92E787DF9EE385DF089502D0F5DF5F
:1002300008959AE07FDF9DE07DDF9BE17BDF9BE51A
:1002400079DF9BE477DF08959BE174DF9BE572DF44
:1002500094E370DF94E36EDF9DE66CDF08959BE12D
:1002600069DF9BE567DF99E365DF97E363DF9DE681
:1002700061DF0895F2E0E0E90895FCDF95919030A8
:1002800021F09D3019F056DFF9CF0895D2DFF6CF77
:1002900068656C70202D20646973706C61792074BE
:1002A000686973206C6973740D696E666F202D2008
:1002B000646973706C61792073797374656D2069FA
:1002C0006E666F0D72656773202D20646973706CA4
:1002D000617920616C6C2072656769737465722046
:1002E00076616C7565730D636C656172202D20639A
:1002F0006C65617220646973706C61790D65636807
:100300006F202D207072696E7420617267756D6543
:100310006E740D6D72656164202D207265616420BC
:1003200064617461206D656D6F72792863686563BF
:100330006B20524541444D452E6D64290D6D7772F9
:10034000697465202D20777269746520746F20644C
:10035000617461206D656D6F727928636865636B88
:1003600020524541444D452E6D64290D696A6D70DA
:10037000202D20696E646972656374206A756D70E2
:1003800020746F20616464726573732028636865EC
:10039000636B20524541444D452E6D64290034DF86
:1003A0000895F3E0EEEB0895FCDF9591903021F095
:1003B0009D3019F0BFDEF9CF08953BDFF6CF202046
:1003C000202020205F0920202020202020205F5F87
:1003D0005F5F5F5F5F2E094350553A2041546D6562
:1003E0006761333238700D20202020202F402E20CE
:1003F0002020202020202F40404040404040402EE0
:10040000095352414D3A20324B69420D20202020A1
:100410002F405E402E20202020202F402F60606043
:1004200060606040402E09464C4153483A203332C8
:100430004B69420D2020202F402F5F60402E20204E
:10044000202F404040404040404040402F0945451B
:1004500050524F4D3A20314B69420D20202F4040E1
:1004600040404040402E202F404040402E60606081
:10047000606060094156523A20313030250D202FFE
:10048000402F6060606060404056402F60404040B8
:10049000402E090956455253494F4E3A20302E31CD
:1004A0002E302D616C7068610D2F402F2020202090
:1004B00020206040402F2020202060404040402EDF
:1004C000000007D00132E9F09D93089507D01197FD
:1004D000089511D008810395088308950CD00881F0
:1004E0000A950883089504D006D000E00883089593
:1004F000B1E0A0E00895D1E0C0E20895F5E0E8E1C0
:100500000895F1DFFBDF95DE9591992311F012DE5E
:10051000FBCF8CDE992708954552524F523A204F17
:10052000564552464C4F5720333220636861726102
:1005300063746572206C696D69742100F9D007C01D
:10054000043009F4B8C0053009F4AFC0D2C040EFA0
:10055000E0D004E0C1D0313009F485C0E9D0DCD06E
:1005600004E0BAD0313009F45BC0E2D0DBD005E062
:10057000B3D0313009F434C0DBD0D1D006E0ACD0F8
:10058000313009F402C0D4D0DBCFD2D0063009F428
:1005900089C0073039F4C9D001E09FD0313009F06B
:1005A000A8C080C0C2D001E098D009F0A2C012E07B
:1005B000E3D1332309F401C075C0D93008F072C00B
:1005C000B4D001E08AD0313009F06CC0CC2EDD2EE1
:1005D00011E0D2D1CC2DDD2D332309F47AC062C0D5
:1005E000A7D0053009F45EC0063039F49ED001E092
:1005F00074D0313009F07DC055C00A3031F495D047
:1006000001E06BD0313011F074C04CC012E0B4D1B5
:10061000332309F401C046C0D93008F043C059C0A3
:1006200087D0043009F43EC0053039F47ED001E0B3
:1006300054D0313009F05DC035C0093031F475D087
:1006400001E04BD0313011F054C02CC012E094D1F5
:10065000332311F4FE0101C025C0F03808F022C098
:10066000F695E79536C064D0043009F432C05DD009
:1006700001E033D0313009F03CC02BC012E07CD116
:10068000303081F400C051D001E027D0313051F436
:1006900000C0CD2EDC2E11E06FD1303019F4DC2DEE
:1006A000CD2D17C04DEF042E089540E32FD013D069
:1006B000313079F01EC040E220D00DD0313049F009
:1006C0001FD009D0313029F01ED005D0313009F0CB
:1006D00010C0042E08952CD00BDF1D912591121708
:1006E00029F40A950023C9F731E0089530E04395D5
:1006F0000895FEDE1FEF012E0895F7E0E6E308956A
:10070000F7E0EAE30895F7E0EEE30895F7E0E2E4C6
:100710000895F7E0E7E40895F7E0E7E50895F7E0E6
:10072000E0E50895F7E0EBE40895F7E0E6E50895E5
:10073000E2DE0881089568656C70696E666F7265A7
:100740006773636C6561726563686F6D7265616420
:100750006D777269746520696A6D7000002786D0B4
:10076000EF01FE019591EF01992331F09D3029F0C1
:100770009A3029F0DFDCF5CF08955BDDF2CFEF0191
:1007800003D0E00FF11D0994F3E0E7EC089521C0D8
:1007900022C023C024C025C026C027C028C029C02D
:1007A0002AC02BC02CC02DC02EC02FC030C031C0DD
:1007B00032C033C034C035C036C036C037C038C090
:1007C00039C03AC03DC040C043C049C0CCDC0395ED
:1007D000C8CF502DFBCF512DF9CF522DF7CF532D30
:1007E000F5CF542DF3CF552DF1CF562DEFCF572DFB
:1007F000EDCF582DEBCF592DE9CF5A2DE7CF5B2DFB
:10080000E5CF5C2DE3CF5D2DE1CF5E2DDFCF5F2DFA
:10081000DDCF502FDBCF512FD9CF522FD7CF532F32
:10082000D5CF542FD3CFD2CF562FD0CF572FCECF17
:10083000582FCCCF592FCACF5B2F95DC5A2FC6CF5C
:100840005D2F91DC5C2FC2CF5F2F8DDC5E2FBECF82
:1008500000D01F912F91522F86DC512FB7CF50918E
:100860005E0081DC50915D007EDC86CFF8E0E2E73F
:10087000089572303A30780A2072313A30780A207E
:1008800072323A30780A2072333A30780A20723461
:100890003A30780A2072353A30780A0D72363A309A
:1008A000780A2072373A30780A2072383A30780A5B
:1008B0002072393A30780A207231303A30780A2082
:1008C0007231313A30780A0D7231323A30780A207A
:1008D0007231333A30780A207231343A30780A2053
:1008E0007231353A30780A207231363A30780A203F
:1008F0007231373A30780A0D7231383A30780A203E
:100900007231393A30780A207232303A30780A201F
:100910007232313A30780A207232323A30780A2014
:100920007232333A30780A0D7232343A30780A2013
:100930007232353A30780A20583A30780A20593ADB
:1009400030780A205A3A30780A2050433A30780AF0
:100950000D53503A30780A00CEDD0881043009F496
:100960000AC0C6DD15960550002321F09D91E2DBFB
:100970000A95FACF089508953327CC27DD27EE276F
:10098000FF27123009F025C02D912FD03130F1F022
:10099000C22F48D047D046D02D9127D03130B1F06A
:1009A000E22F49D048D0CE0FDF1F2D911ED031301D
:1009B00069F0EE27FF27E22F3ED0CE0FDF1F2D91EB
:1009C00014D0313019F0C20FD11D08952DEF022E31
:1009D00008952D910AD03130C9F31FD0222E2D91C8
:1009E00004D0313099F3220E0895213640F4213499
:1009F00048F4203308F40FC02A3338F00CC02736EF
:100A000040F009C0273418F006C02053089527533A
:100A100008952755089531E00895220F220F220FDF
:100A2000220F0895CC0FDD1FCC0FDD1FCC0FDD1F73
:100A3000CC0FDD1F0895EE0FFF1FEE0FFF1FEE0F0F
:100A4000FF1FEE0FFF1F089528821DD095919A3049
:100A500021F09D3039F06EDBF9CF522D84DB13D0BD
:100A60007196F4CF5D2F7FDB5C2F7DDB089508D07E
:100A700095919A3011F05EDBFBCF588174DB0895BD
:100A8000FAE0ECE80895FAE0E1EA089556616C7541
:100A900065206F6620616464726573733A203078F4
:100AA0000A5772697474656E2076616C75652030C2
:100AB000780A20746F2061646472657373203078E3
:020AC0000D0027
:00000001FF
